{
  "contractName": "kidney",
  "abi": [
    {
      "constant": true,
      "inputs": [
        {
          "internalType": "uint256",
          "name": "",
          "type": "uint256"
        }
      ],
      "name": "donation",
      "outputs": [
        {
          "internalType": "string",
          "name": "p_name",
          "type": "string"
        },
        {
          "internalType": "string",
          "name": "blood_group",
          "type": "string"
        },
        {
          "internalType": "string",
          "name": "city",
          "type": "string"
        },
        {
          "internalType": "address",
          "name": "customer",
          "type": "address"
        },
        {
          "internalType": "uint256",
          "name": "mobile",
          "type": "uint256"
        },
        {
          "internalType": "uint256",
          "name": "door",
          "type": "uint256"
        },
        {
          "internalType": "string",
          "name": "hla",
          "type": "string"
        },
        {
          "internalType": "enum kidney.state",
          "name": "donationstate",
          "type": "uint8"
        },
        {
          "internalType": "uint256",
          "name": "matching_block",
          "type": "uint256"
        },
        {
          "internalType": "uint256",
          "name": "month",
          "type": "uint256"
        }
      ],
      "payable": false,
      "stateMutability": "view",
      "type": "function"
    },
    {
      "constant": false,
      "inputs": [
        {
          "internalType": "string",
          "name": "p_name",
          "type": "string"
        },
        {
          "internalType": "string",
          "name": "blood_group",
          "type": "string"
        },
        {
          "internalType": "string",
          "name": "city",
          "type": "string"
        },
        {
          "internalType": "uint256",
          "name": "mobile",
          "type": "uint256"
        },
        {
          "internalType": "uint256",
          "name": "door",
          "type": "uint256"
        },
        {
          "internalType": "string",
          "name": "hla",
          "type": "string"
        },
        {
          "internalType": "uint256",
          "name": "month",
          "type": "uint256"
        }
      ],
      "name": "storedata",
      "outputs": [],
      "payable": false,
      "stateMutability": "nonpayable",
      "type": "function"
    },
    {
      "constant": false,
      "inputs": [
        {
          "internalType": "uint256",
          "name": "userid",
          "type": "uint256"
        },
        {
          "internalType": "string",
          "name": "_hla",
          "type": "string"
        }
      ],
      "name": "updatedatahla",
      "outputs": [],
      "payable": false,
      "stateMutability": "nonpayable",
      "type": "function"
    },
    {
      "constant": false,
      "inputs": [
        {
          "internalType": "uint256",
          "name": "userid",
          "type": "uint256"
        },
        {
          "internalType": "uint256",
          "name": "_matching_block",
          "type": "uint256"
        }
      ],
      "name": "updatematchblock",
      "outputs": [],
      "payable": false,
      "stateMutability": "nonpayable",
      "type": "function"
    },
    {
      "constant": false,
      "inputs": [
        {
          "internalType": "uint256",
          "name": "userid",
          "type": "uint256"
        }
      ],
      "name": "statefound",
      "outputs": [],
      "payable": false,
      "stateMutability": "nonpayable",
      "type": "function"
    },
    {
      "constant": false,
      "inputs": [
        {
          "internalType": "uint256",
          "name": "userid",
          "type": "uint256"
        }
      ],
      "name": "statenotfound",
      "outputs": [],
      "payable": false,
      "stateMutability": "nonpayable",
      "type": "function"
    },
    {
      "constant": false,
      "inputs": [],
      "name": "Blocknotfound",
      "outputs": [],
      "payable": false,
      "stateMutability": "nonpayable",
      "type": "function"
    },
    {
      "constant": true,
      "inputs": [],
      "name": "gettotalcount",
      "outputs": [
        {
          "internalType": "uint256",
          "name": "",
          "type": "uint256"
        }
      ],
      "payable": false,
      "stateMutability": "view",
      "type": "function"
    },
    {
      "constant": false,
      "inputs": [],
      "name": "blockfoundforloop",
      "outputs": [],
      "payable": false,
      "stateMutability": "nonpayable",
      "type": "function"
    }
  ],
  "bytecode": "0x608060405234801561001057600080fd5b50611744806100206000396000f3fe608060405234801561001057600080fd5b50600436106100935760003560e01c8063a67a36d411610066578063a67a36d4146101a9578063bcbf78a6146101c7578063c914354314610465578063f9a7c82814610493578063fdac3254146104c157610093565b806301f28680146100985780634d10281a1461015d5780637c6c0d78146101675780637e08d7fd14610171575b600080fd5b61015b600480360360408110156100ae57600080fd5b8101908080359060200190929190803590602001906401000000008111156100d557600080fd5b8201836020820111156100e757600080fd5b8035906020019184600183028401116401000000008311171561010957600080fd5b91908080601f016020809104026020016040519081016040528093929190818152602001838380828437600081840152601f19601f820116905080830192505050505050509192919290505050610710565b005b61016561073f565b005b61016f610b07565b005b6101a76004803603604081101561018757600080fd5b810190808035906020019092919080359060200190929190505050611050565b005b6101b161106f565b6040518082815260200191505060405180910390f35b610463600480360360e08110156101dd57600080fd5b81019080803590602001906401000000008111156101fa57600080fd5b82018360208201111561020c57600080fd5b8035906020019184600183028401116401000000008311171561022e57600080fd5b91908080601f016020809104026020016040519081016040528093929190818152602001838380828437600081840152601f19601f8201169050808301925050505050505091929192908035906020019064010000000081111561029157600080fd5b8201836020820111156102a357600080fd5b803590602001918460018302840111640100000000831117156102c557600080fd5b91908080601f016020809104026020016040519081016040528093929190818152602001838380828437600081840152601f19601f8201169050808301925050505050505091929192908035906020019064010000000081111561032857600080fd5b82018360208201111561033a57600080fd5b8035906020019184600183028401116401000000008311171561035c57600080fd5b91908080601f016020809104026020016040519081016040528093929190818152602001838380828437600081840152601f19601f8201169050808301925050505050505091929192908035906020019092919080359060200190929190803590602001906401000000008111156103d357600080fd5b8201836020820111156103e557600080fd5b8035906020019184600183028401116401000000008311171561040757600080fd5b91908080601f016020809104026020016040519081016040528093929190818152602001838380828437600081840152601f19601f82011690508083019250505050505050919291929080359060200190929190505050611078565b005b6104916004803603602081101561047b57600080fd5b8101908080359060200190929190505050611220565b005b6104bf600480360360208110156104a957600080fd5b810190808035906020019092919050505061125a565b005b6104ed600480360360208110156104d757600080fd5b8101908080359060200190929190505050611295565b604051808060200180602001806020018b73ffffffffffffffffffffffffffffffffffffffff1673ffffffffffffffffffffffffffffffffffffffff1681526020018a81526020018981526020018060200188600281111561054b57fe5b60ff16815260200187815260200186815260200185810385528f818151815260200191508051906020019080838360005b8381101561059757808201518184015260208101905061057c565b50505050905090810190601f1680156105c45780820380516001836020036101000a031916815260200191505b5085810384528e818151815260200191508051906020019080838360005b838110156105fd5780820151818401526020810190506105e2565b50505050905090810190601f16801561062a5780820380516001836020036101000a031916815260200191505b5085810383528d818151815260200191508051906020019080838360005b83811015610663578082015181840152602081019050610648565b50505050905090810190601f1680156106905780820380516001836020036101000a031916815260200191505b50858103825289818151815260200191508051906020019080838360005b838110156106c95780820151818401526020810190506106ae565b50505050905090810190601f1680156106f65780820380516001836020036101000a031916815260200191505b509e50505050505050505050505050505060405180910390f35b8060016000848152602001908152602001600020600601908051906020019061073a929190611576565b505050565b6000600190505b6000548111610b04576107576115f6565b6001600083815260200190815260200160002060405180610140016040529081600082018054600181600116156101000203166002900480601f01602080910402602001604051908101604052809291908181526020018280546001816001161561010002031660029004801561080f5780601f106107e45761010080835404028352916020019161080f565b820191906000526020600020905b8154815290600101906020018083116107f257829003601f168201915b50505050508152602001600182018054600181600116156101000203166002900480601f0160208091040260200160405190810160405280929190818152602001828054600181600116156101000203166002900480156108b15780601f10610886576101008083540402835291602001916108b1565b820191906000526020600020905b81548152906001019060200180831161089457829003601f168201915b50505050508152602001600282018054600181600116156101000203166002900480601f0160208091040260200160405190810160405280929190818152602001828054600181600116156101000203166002900480156109535780601f1061092857610100808354040283529160200191610953565b820191906000526020600020905b81548152906001019060200180831161093657829003601f168201915b505050505081526020016003820160009054906101000a900473ffffffffffffffffffffffffffffffffffffffff1673ffffffffffffffffffffffffffffffffffffffff1673ffffffffffffffffffffffffffffffffffffffff1681526020016004820154815260200160058201548152602001600682018054600181600116156101000203166002900480601f016020809104026020016040519081016040528092919081815260200182805460018160011615610100020316600290048015610a5f5780601f10610a3457610100808354040283529160200191610a5f565b820191906000526020600020905b815481529060010190602001808311610a4257829003601f168201915b505050505081526020016007820160009054906101000a900460ff166002811115610a8657fe5b6002811115610a9157fe5b815260200160088201548152602001600982015481525050905060018161012001511415610ad1576001421115610acc57610acb82611220565b5b610af6565b60038161012001511415610af5576276a700421015610af457610af382611220565b5b5b5b508080600101915050610746565b50565b6000600190505b60005481101561104d576000600290505b600054811161103f57600060405160200180826002811115610b3d57fe5b60ff1660f81b8152600101915050604051602081830303815290604052805190602001206001600084815260200190815260200160002060070160009054906101000a900460ff1660405160200180826002811115610b9857fe5b60ff1660f81b815260010191505060405160208183030381529060405280519060200120141561103257600180600084815260200190815260200160002060050154141561103157600060405160200180826002811115610bf557fe5b60ff1660f81b8152600101915050604051602081830303815290604052805190602001206001600083815260200190815260200160002060070160009054906101000a900460ff1660405160200180826002811115610c5057fe5b60ff1660f81b81526001019150506040516020818303038152906040528051906020012014156110305760006001600083815260200190815260200160002060050154141561102f57600160008281526020019081526020016000206002016040516020018082805460018160011615610100020316600290048015610d0d5780601f10610ceb576101008083540402835291820191610d0d565b820191906000526020600020905b815481529060010190602001808311610cf9575b505091505060405160208183030381529060405280519060200120600160008481526020019081526020016000206002016040516020018082805460018160011615610100020316600290048015610d9c5780601f10610d7a576101008083540402835291820191610d9c565b820191906000526020600020905b815481529060010190602001808311610d88575b505091505060405160208183030381529060405280519060200120141561102e57600160008281526020019081526020016000206001016040516020018082805460018160011615610100020316600290048015610e315780601f10610e0f576101008083540402835291820191610e31565b820191906000526020600020905b815481529060010190602001808311610e1d575b505091505060405160208183030381529060405280519060200120600160008481526020019081526020016000206001016040516020018082805460018160011615610100020316600290048015610ec05780601f10610e9e576101008083540402835291820191610ec0565b820191906000526020600020905b815481529060010190602001808311610eac575b505091505060405160208183030381529060405280519060200120141561102d57600160008281526020019081526020016000206006016040516020018082805460018160011615610100020316600290048015610f555780601f10610f33576101008083540402835291820191610f55565b820191906000526020600020905b815481529060010190602001808311610f41575b505091505060405160208183030381529060405280519060200120600160008481526020019081526020016000206006016040516020018082805460018160011615610100020316600290048015610fe45780601f10610fc2576101008083540402835291820191610fe4565b820191906000526020600020905b815481529060010190602001808311610fd0575b505091505060405160208183030381529060405280519060200120141561102c5761100f8282611050565b6110198183611050565b6110228261125a565b61102b8161125a565b5b5b5b5b5b5b5b8080600101915050610b1f565b508080600101915050610b0e565b50565b8060016000848152602001908152602001600020600801819055505050565b60008054905090565b60016000540160008190555060008090506040518061014001604052808981526020018881526020018781526020013373ffffffffffffffffffffffffffffffffffffffff168152602001868152602001858152602001848152602001600060028111156110e257fe5b8152602001828152602001838152506001600080548152602001908152602001600020600082015181600001908051906020019061112192919061166a565b50602082015181600101908051906020019061113e92919061166a565b50604082015181600201908051906020019061115b92919061166a565b5060608201518160030160006101000a81548173ffffffffffffffffffffffffffffffffffffffff021916908373ffffffffffffffffffffffffffffffffffffffff1602179055506080820151816004015560a0820151816005015560c08201518160060190805190602001906111d392919061166a565b5060e08201518160070160006101000a81548160ff021916908360028111156111f857fe5b0217905550610100820151816008015561012082015181600901559050505050505050505050565b600180600083815260200190815260200160002060070160006101000a81548160ff0219169083600281111561125257fe5b021790555050565b60026001600083815260200190815260200160002060070160006101000a81548160ff0219169083600281111561128d57fe5b021790555050565b6001602052806000526040600020600091509050806000018054600181600116156101000203166002900480601f0160208091040260200160405190810160405280929190818152602001828054600181600116156101000203166002900480156113415780601f1061131657610100808354040283529160200191611341565b820191906000526020600020905b81548152906001019060200180831161132457829003601f168201915b505050505090806001018054600181600116156101000203166002900480601f0160208091040260200160405190810160405280929190818152602001828054600181600116156101000203166002900480156113df5780601f106113b4576101008083540402835291602001916113df565b820191906000526020600020905b8154815290600101906020018083116113c257829003601f168201915b505050505090806002018054600181600116156101000203166002900480601f01602080910402602001604051908101604052809291908181526020018280546001816001161561010002031660029004801561147d5780601f106114525761010080835404028352916020019161147d565b820191906000526020600020905b81548152906001019060200180831161146057829003601f168201915b5050505050908060030160009054906101000a900473ffffffffffffffffffffffffffffffffffffffff1690806004015490806005015490806006018054600181600116156101000203166002900480601f01602080910402602001604051908101604052809291908181526020018280546001816001161561010002031660029004801561154d5780601f106115225761010080835404028352916020019161154d565b820191906000526020600020905b81548152906001019060200180831161153057829003601f168201915b5050505050908060070160009054906101000a900460ff1690806008015490806009015490508a565b828054600181600116156101000203166002900490600052602060002090601f016020900481019282601f106115b757805160ff19168380011785556115e5565b828001600101855582156115e5579182015b828111156115e45782518255916020019190600101906115c9565b5b5090506115f291906116ea565b5090565b604051806101400160405280606081526020016060815260200160608152602001600073ffffffffffffffffffffffffffffffffffffffff1681526020016000815260200160008152602001606081526020016000600281111561165657fe5b815260200160008152602001600081525090565b828054600181600116156101000203166002900490600052602060002090601f016020900481019282601f106116ab57805160ff19168380011785556116d9565b828001600101855582156116d9579182015b828111156116d85782518255916020019190600101906116bd565b5b5090506116e691906116ea565b5090565b61170c91905b808211156117085760008160009055506001016116f0565b5090565b9056fea265627a7a7231582075aa760f94ccad781850b185fe9b84d5b5e001359e8713be1758117f284556e864736f6c63430005100032",
  "source": "pragma solidity >=0.4.0 <=0.6.0;\r\n\r\ncontract kidney\r\n{//Start contract\r\n    struct Donation\r\n    {\r\n        string p_name;\r\n        string blood_group;\r\n        string city;\r\n        address customer;\r\n        uint256 mobile;\r\n        uint door;\r\n        string hla;\r\n        state donationstate;\r\n        uint matching_block;\r\n        uint month;\r\n        // uint timestamp;\r\n    }\r\n    \r\n    enum state{Created, Notfound, Found}\r\n    uint id;\r\n\r\n    mapping(uint=>Donation) public donation;\r\n    \r\n    function storedata(string memory p_name,string memory blood_group, string memory city,uint256 mobile,uint door, string memory hla,uint month) public\r\n    {\r\n        id=id+1;\r\n        uint matching_block=0;\r\n        donation[id]=Donation(p_name,blood_group,city,msg.sender,mobile,door,hla,state.Created,matching_block,month);    \r\n    }\r\n    \r\n    function updatedatahla(uint userid,string memory _hla) public\r\n    {\r\n        donation[userid].hla=_hla;\r\n    }\r\n    \r\n    function updatematchblock(uint userid,uint _matching_block) public\r\n    {\r\n        donation[userid].matching_block=_matching_block;\r\n    }\r\n    \r\n    function statefound(uint userid) public\r\n    {\r\n        donation[userid].donationstate=state.Found;\r\n    }\r\n    \r\n    function statenotfound(uint userid) public\r\n    {\r\n        donation[userid].donationstate=state.Notfound;\r\n    }\r\n    \r\n    function Blocknotfound() public\r\n    {\r\n        for(uint i=1;i<=id;i++)\r\n        {\r\n            Donation memory x=donation[i];\r\n            if( x.month == 1)\r\n            {\r\n               \r\n                if (block.timestamp > 1 seconds) \r\n                {\r\n                    statenotfound(i);\r\n                \r\n                }\r\n            \r\n            }\r\n            \r\n            else if( x.month == 3)\r\n            {\r\n                if(block.timestamp < 90 days)\r\n                {\r\n                     statenotfound(i);\r\n                }\r\n            }\r\n           \r\n             \r\n        }\r\n       \r\n    }\r\n     \r\n    // function matchinteger() public view returns(bool)\r\n    // {\r\n    //     for(uint i=1;i<=id;i++)\r\n    //     {\r\n    //         if(keccak256(abi.encodePacked(donation[i].door)) == 1)\r\n    //         {\r\n    //             return true;\r\n    //         }\r\n    //     }\r\n    //     return false;\r\n    // }\r\n    \r\n    \r\n    // function matchinteger1() public view returns(bool)\r\n    // {\r\n    //     for(uint i=1;i<=id;i++)\r\n    //     {\r\n    //         if(keccak256(abi.encodePacked(donation[i].door)) == '1')\r\n    //         {\r\n    //             return true;\r\n    //         }\r\n    //     }\r\n    //     return false;\r\n    // }\r\n    \r\n    \r\n    // function matchinteger12() public view returns(bool)\r\n    // {\r\n    //     for(uint i=1;i<=id;i++)\r\n    //     {\r\n    //       if(keccak256(abi.encodePacked(donation[i].door)) == '1')\r\n    //         {\r\n    //             return true;\r\n    //         }\r\n    //     }\r\n    //     return false;\r\n    // }\r\n    \r\n    // function matchinteger123() public view returns(bool)\r\n    // {\r\n    //     for(uint i=1;i<=id;i++)\r\n    //     {\r\n    //         if((donation[i].door) ==  1)\r\n    //         {\r\n    //             return true;\r\n    //         }\r\n    //     }\r\n    //     return false;\r\n    // }\r\n    \r\n    \r\n    function gettotalcount() public view returns(uint)\r\n    {\r\n        return id;\r\n    }\r\n    \r\n    function blockfoundforloop() public \r\n    {\r\n      \r\n      for(uint i=1;i<id;i++)\r\n      {\r\n        for(uint j=2;j<=id;j++)\r\n        {\r\n            if (keccak256(abi.encodePacked(donation[i].donationstate)) == keccak256(abi.encodePacked(state.Created)))\r\n            {\r\n               if((donation[i].door) ==  1)\r\n                {\r\n                      \r\n                    if (keccak256(abi.encodePacked(donation[j].donationstate)) == keccak256(abi.encodePacked(state.Created)))\r\n                    {\r\n                        \r\n                     if((donation[j].door) ==  0)\r\n                      {\r\n                         \r\n                        if(keccak256(abi.encodePacked(donation[i].city)) == keccak256(abi.encodePacked(donation[j].city)))\r\n                        {\r\n                            \r\n                          if (keccak256(abi.encodePacked(donation[i].blood_group)) == keccak256(abi.encodePacked(donation[j].blood_group)))  \r\n                           {\r\n                            \r\n                            if( keccak256(abi.encodePacked(donation[i].hla)) == keccak256(abi.encodePacked(donation[j].hla)) )\r\n                                {\r\n                                    updatematchblock(i,j);//Update First Block\r\n                                    updatematchblock(j,i);//Update Second Block\r\n                                    statefound(i);//Update First Block State;\r\n                                    statefound(j);//Update Second Block State;\r\n                                           \r\n                                }\r\n                            }\r\n                        }\r\n                      }\r\n                    }\r\n                }\r\n            }\r\n        }\r\n         \r\n      }\r\n    }\r\n    \r\n    \r\n}//End of contract",
  "sourcePath": "C:\\Users\\shavej shaikh\\Desktop\\Nodejs\\change\\contracts\\kidney.sol",
  "compiler": {
    "name": "solc",
    "version": "0.5.16+commit.9c3226ce.Emscripten.clang"
  },
  "schemaVersion": "3.0.23",
  "updatedAt": "2020-04-02T16:53:23.122Z",
  "devdoc": {
    "methods": {}
  },
  "userdoc": {
    "methods": {}
  }
}